:100000000C9462000C948A000C948A000C948A0070
:100010000C948A000C948A000C948A000C948A0038
:100020000C948A000C948A000C948A000C941B0493
:100030000C948A000C948A000C948A000C948A0018
:100040000C94D9040C948A000C948A000C948A00B5
:100050000C948A000C948A000C948A000C948A00F8
:100060000C948A000C948A000000000024002700F1
:100070002A0000000000250028002B0000000000DE
:1000800023002600290004040404040404040202DA
:100090000202020203030303030301020408102007
:1000A0004080010204081020010204081020000012
:1000B0000007000201000003040600000000000029
:1000C00000008C0011241FBECFEFD8E0DEBFCDBFF3
:1000D00011E0A0E0B1E0E2E3F1E102C005900D9291
:1000E000AC30B107D9F711E0ACE0B1E001C01D922E
:1000F000A338B107E1F710E0C4ECD0E004C02297C8
:10010000FE010E949308C23CD107C9F70E94FD0579
:100110000C9497080C9400006F927F928F929F929C
:10012000AF92BF92CF92DF92EF92FF920F931F9305
:1001300088E191E00E94D702E0900001F090010177
:100140000091020110910301A0900401B0900501FB
:10015000C0900601D09007016090080170900901DD
:1001600080900A0190900B0184E191E09093380116
:100170008093370180E191E09093360180933501BF
:100180008CE091E090933A018093390110925301F1
:1001900080E090E0A0E0B0E080934B0190934C01B0
:1001A000A0934D01B0934E0180E090E0AFE7B3E43F
:1001B00080934F0190935001A0935101B09352014D
:1001C00084E690E0A0E0B0E080934701909348017E
:1001D000A0934901B0934A01109234011092330167
:1001E000C801B70120E030E040E050E00E94BA06CC
:1001F00087FD54C0C601B50120E030E040E050E08A
:100200000E94BA0687FD4AC0C401B30120E030E075
:1002100040E050E00E94BA0687FD40C0E0921B011A
:10022000F0921C0100931D0110931E01A0921F016A
:10023000B0922001C0922101D0922201609223014C
:10024000709224018092250190922601E09227016C
:10025000F09228010093290110932A01C601B501EB
:100260002DEC3CEC4CEC5DE30E949F0760932B016E
:1002700070932C0180932D0190932E01C401B30142
:100280002DEC3CEC4CEC5DE30E94BE0660932F012C
:100290007093300180933101909332010E942105C7
:1002A00020914701309148014091490150914A0104
:1002B000621B730B840B950B60933B0170933C01A5
:1002C00080933D0190933E011F910F91FF90EF901D
:1002D000DF90CF90BF90AF909F908F907F906F9066
:1002E00008952F923F924F925F926F927F928F92DA
:1002F0009F92AF92BF92CF92DF92EF92FF920F93B5
:100300001F93DF93CF93CDB7DEB728970FB6F8943E
:10031000DEBF0FBECDBF88E191E06AE070E00E94D1
:100320002D0380915301882309F409C10E942105FE
:1003300069837A838B839C8380913B0190913C01FC
:10034000A0913D01B0913E0129813A814B815C81B0
:10035000281B390B4A0B5B0B809147019091480198
:10036000A0914901B0914A01281739074A075B0754
:1003700008F4E5C0E0913501F091360160807180AC
:1003800082809380E0913901F0913A01608171811E
:1003900082819381A40193010E9455061B012C01C7
:1003A00020912B0130912C0140912D0150912E0173
:1003B0000E949F0720913F013091400140914101EF
:1003C000509142010E9456067B018C0160933F01CF
:1003D00070934001809341019093420180914F01BD
:1003E0008D83909150019E83A0915101AF83B09174
:1003F0005201B887C801B7012D813E81AD010E942D
:100400009B0718166CF48D819E81AF81B88580930F
:100410003F0190934001A0934101B093420118C065
:10042000A0904B01B0904C01C0904D01D0904E0176
:10043000C801B701A60195010E94BA06882344F4B9
:10044000A0923F01B0924001C0924101D09242017E
:10045000C201B10120912701309128014091290169
:1004600050912A010E949F0720913F013091400145
:1004700040914101509142010E9456067B018C013E
:10048000C401B301209143013091440140914501E1
:10049000509146010E94550620912F013091300164
:1004A00040913101509132010E949F079B01AC01A4
:1004B000C801B7010E9455067B018C012D813E8148
:1004C0004F8158850E949B0718162CF48D819E81C0
:1004D000AF81B88516C0D0904B01C0904C01B09050
:1004E0004D01A0904E01C801B7012D2D3C2D4B2D83
:1004F0005A2D0E94BA06882334F48D2D9C2DAB2DE5
:10050000BA2D7C018D01E0913701F0913801E08234
:10051000F1820283138360924301709244018092BE
:1005200045019092460189819A81AB81BC8180937B
:100530003B0190933C01A0933D01B0933E0128966E
:100540000FB6F894DEBF0FBECDBFCF91DF911F91E4
:100550000F91FF90EF90DF90CF90BF90AF909F9062
:100560008F907F906F905F904F903F902F90089565
:1005700088E191E06AE070E00E94140480E090E07D
:10058000A0E2B1E48093100190931101A0931201B5
:10059000B093130180E090E0A8ECB2E480930C01EA
:1005A00090930D01A0930E01B0930F010895FC01EB
:1005B000809154018C3090F480838F5F809354013C
:1005C000815090E0FC01EE0FFF1FE80FF91FEB5A7E
:1005D000FE4F88EB9BE09283818308958FEF8083A9
:1005E0000895FC0120812C30B8F58181992787FD81
:1005F000909548E850E0481B590B440F551F440F95
:10060000551F6417750784F08281992787FD90959F
:1006100048E552E0481B590B440F551F440F551F26
:10062000641775070CF4AB0142505040CA01AA2769
:1006300097FDA095BA2F880F991FAA1FBB1F4FB710
:10064000F89430E0F901EE0FFF1FE20FF31FEB5AB1
:10065000FE4F928381834FBF0895AF92BF92CF9296
:10066000DF92EF92FF920F931F93CF93DF93EC01F2
:100670009B0182E0603278070CF048C077FF03C02E
:1006800020E030E005C0653B710514F024EB30E05C
:1006900000D000D0B901882777FD8095982F298157
:1006A000332727FD3095E8E8AE2EB12CA21AB30A05
:1006B000AA0CBB1CAA0CBB1CCC24B7FCC094DC2C21
:1006C000EA81FF27E7FDF09528E532E02E1B3F0B7E
:1006D000220F331F220F331F442737FD4095542F1D
:1006E000EDB7FEB7218332834383548320E030E0AB
:1006F00040E050E004EBE02EF12C012D112D0E9482
:100700000C069B010F900F900F900F90CE01B90136
:100710000E94F102DF91CF911F910F91FF90EF9016
:10072000DF90CF90BF90AF900895CF92DF92EF927D
:10073000FF921F93CF93DF93EC01162F7A0169018B
:1007400088818C3008F064C0862F61E00E946A05C1
:10075000888190E0FC01EE0FFF1FE80FF91FEB5AB4
:10076000FE4F1F738081807C812B808380E292E02A
:100770008E199F0964E070E00E942D08698380E66D
:1007800099E08C199D0964E070E00E942D086A834D
:10079000A8818A2F6CE00E942108682F70E0AB01CD
:1007A000440F551F460F571F440F551F440F551F29
:1007B00020E030E0C901840F951FFC01EE0FFF1F00
:1007C000E80FF91FEB5AFE4F808186FD15C02F5FA1
:1007D0003F4F2C30310571F724C01092800082E029
:1007E000809381001092850010928400B19A8091CC
:1007F0006F00826080936F008A2F90E0FC01EE0F03
:10080000FF1FE80FF91FEB5AFE4F80818064808341
:100810008881DF91CF911F91FF90EF90DF90CF9073
:100820000895672BD1F2E8CF40E252E020E639E0AC
:100830000E94950308951F920F920FB60F921124F4
:100840002F933F934F935F936F937F938F939F93D8
:10085000AF93BF93EF93FF938091790187FF05C01A
:1008600010928500109284002BC0209179013327CB
:1008700027FD30958091540190E02817390704F541
:1008800080917901992787FD9095FC01EE0FFF1F5C
:10089000E80FF91FEB5AFE4F808186FF11C080914F
:1008A0007901992787FD9095FC01EE0FFF1FE80F56
:1008B000F91FEB5AFE4F80818F7360E00E94A905FB
:1008C000809179018F5F809379012091790133279D
:1008D00027FD30958091540190E0281739070CF0DE
:1008E0004EC0809179018C300CF049C02091840079
:1008F0003091850080917901992787FD9095FC01C1
:10090000EE0FFF1FE80FF91FEB5AFE4F8181928116
:10091000280F391F30938900209388008091790136
:10092000992787FD9095FC01EE0FFF1FE80FF91F37
:10093000EB5AFE4F808186FF2BC080917901992769
:1009400087FD9095FC01EE0FFF1FE80FF91FEB5A92
:10095000FE4F80818F7361E00E94A90519C080E479
:100960009CE905C080918400909185000496909345
:100970008900809388008FEF8093790109C080916E
:10098000840090918500049680549C4940F3EACFFE
:10099000FF91EF91BF91AF919F918F917F916F9157
:1009A0005F914F913F912F910F900FBE0F901F902D
:1009B00018951F920F920FB60F9211242F933F9309
:1009C0008F939F93AF93BF9380917E0190917F010E
:1009D000A0918001B0918101309182010196A11D09
:1009E000B11D232F2D5F2D3720F02D570196A11D0E
:1009F000B11D2093820180937E0190937F01A0938B
:100A00008001B093810180917A0190917B01A09146
:100A10007C01B0917D010196A11DB11D80937A01E9
:100A200090937B01A0937C01B0937D01BF91AF9126
:100A30009F918F913F912F910F900FBE0F901F901C
:100A400018958FB7F89420917E0130917F014091E5
:100A50008001509181018FBFB901CA010895789436
:100A600084B5826084BD84B5816084BD85B58260B3
:100A700085BD85B5816085BDEEE6F0E08081816051
:100A80008083E1E8F0E01082808182608083808151
:100A900081608083E0E8F0E0808181608083E1EB29
:100AA000F0E0808184608083E0EBF0E08081816011
:100AB0008083EAE7F0E080818460808380818260C7
:100AC00080838081816080838081806880831092B0
:100AD000C1000895CF93DF93482F50E0CA01865696
:100AE0009F4FFC0134914A575F4FFA01849188234C
:100AF00069F190E0880F991FFC01E859FF4FA5911B
:100B0000B491FC01EE58FF4FC591D491662351F486
:100B10002FB7F8948C91932F909589238C9388818B
:100B200089230BC0623061F42FB7F8948C91932F16
:100B3000909589238C938881832B88832FBF06C04F
:100B40009FB7F8948C91832B8C939FBFDF91CF91AB
:100B50000895482F50E0CA0182559F4FFC0124910F
:100B6000CA0186569F4FFC0194914A575F4FFA0184
:100B70003491332309F440C0222351F1233071F022
:100B8000243028F42130A1F0223011F514C0263091
:100B9000B1F02730C1F02430D9F404C08091800036
:100BA0008F7703C0809180008F7D8093800010C07C
:100BB00084B58F7702C084B58F7D84BD09C08091D4
:100BC000B0008F7703C08091B0008F7D8093B0001C
:100BD000E32FF0E0EE0FFF1FEE58FF4FA591B49109
:100BE0002FB7F894662321F48C919095892302C045
:100BF0008C91892B8C932FBF0895CF93DF930E9404
:100C00002F050E94B802C0E0D0E00E947101209739
:100C1000E1F30E940000F9CF2F923F924F925F9232
:100C20006F927F928F929F92AF92BF92CF92DF92FC
:100C3000EF92FF920F931F93DF93CF93CDB7DEB761
:100C40003B014C0119012A016D897E898F89988D9C
:100C50006A197B098C099D09621A730A840A950A2C
:100C6000A40193010E940208E218F308040915097F
:100C7000A80197010E9440082A0D3B1D4C1D5D1DD7
:100C8000B901CA01CF91DF911F910F91FF90EF90B1
:100C9000DF90CF90BF90AF909F908F907F906F909C
:100CA0005F904F903F902F9008955058BB27AA27F0
:100CB0000ED007C1F8D030F0FDD020F031F49F3FC6
:100CC00011F41EF4EDC00EF4E095E7FBE3C0E92F4C
:100CD00009D180F3BA17620773078407950718F0E4
:100CE00071F49EF521C10EF4E0950B2EBA2FA02DC4
:100CF0000B01B90190010C01CA01A0011124FF27C9
:100D0000591B99F0593F50F4503E68F11A16F040C3
:100D1000A22F232F342F4427585FF3CF46953795C2
:100D20002795A795F0405395C9F77EF41F16BA0B87
:100D3000620B730B840BBAF09150A1F0FF0FBB1F35
:100D4000661F771F881FC2F70EC0BA0F621F731F7E
:100D5000841F48F4879577956795B795F7959E3FDB
:100D600008F0B3CF9395880F08F09927EE0F979569
:100D7000879508956BD008F481E008950CD0A1C048
:100D800099D040F090D030F021F45F3F19F082C04C
:100D90005111CBC085C0A6D098F39923C9F3552330
:100DA000B1F3951B550BBB27AA276217730784075E
:100DB00038F09F5F5F4F220F331F441FAA1FA9F314
:100DC00033D00E2E3AF0E0E830D091505040E69506
:100DD000001CCAF729D0FE2F27D0660F771F881F67
:100DE000BB1F261737074807AB07B0E809F0BB0B56
:100DF000802DBF01FF2793585F4F2AF09E3F51057A
:100E000068F048C092C05F3FECF3983EDCF38695F3
:100E100077956795B795F7959F5FC9F7880F911DEF
:100E20009695879597F90895E1E0660F771F881FDB
:100E3000BB1F621773078407BA0720F0621B730B8E
:100E4000840BBA0BEE1F88F7E0950895990F000800
:100E5000550FAA0BE0E8FEEF16161706E807F9078C
:100E6000C0F012161306E407F50798F0621B730B27
:100E7000840B950B39F40A2661F0232B242B252BA8
:100E800021F408950A2609F4A140A6958FEF811D4B
:100E9000811D089597F99F6780E870E060E00895EC
:100EA0009FEF80EC089500240A9416161706180682
:100EB0000906089500240A9412161306140605065E
:100EC0000895092E0394000C11F4882352F0BB0FEF
:100ED00040F4BF2B11F460FF04C06F5F7F4F8F4F52
:100EE0009F4F089557FD9058440F551F59F05F3F8D
:100EF00071F04795880F97FB991F61F09F3F79F03C
:100F000087950895121613061406551FF2CF4695BD
:100F1000F1DF08C0161617061806991FF1CF86953F
:100F20007105610508940895E894BB276627772723
:100F3000CB0197F908958ADF08F48FEF08950BD05D
:100F4000C0CFB1DF28F0B6DF18F0952309F0A2CFAB
:100F5000A7CF1124EACFC6DFA0F3959FD1F3950F59
:100F600050E0551F629FF001729FBB27F00DB11D2D
:100F7000639FAA27F00DB11DAA1F649F6627B00DBD
:100F8000A11D661F829F2227B00DA11D621F739FA6
:100F9000B00DA11D621F839FA00D611D221F749FB4
:100FA0003327A00D611D231F849F600D211D822FFB
:100FB000762F6A2F11249F5750408AF0E1F0882342
:100FC0004AF0EE0FFF1FBB1F661F771F881F91504F
:100FD0005040A9F79E3F510570F05CCFA6CF5F3F10
:100FE000ECF3983EDCF3869577956795B795F79582
:100FF000E7959F5FC1F7FE2B880F911D969587950A
:1010000097F90895629FD001739FF001829FE00DD0
:10101000F11D649FE00DF11D929FF00D839FF00D77
:10102000749FF00D659FF00D9927729FB00DE11D23
:10103000F91F639FB00DE11DF91FBD01CF01112400
:101040000895991B79E004C0991F961708F0961B24
:10105000881F7A95C9F78095089597FB092E072672
:101060000AD077FD04D027D006D000201AF470955E
:1010700061957F4F0895F6F7909581959F4F08955C
:1010800097FB092E05260ED057FD04D028D00AD094
:10109000001C38F450954095309521953F4F4F4FA7
:1010A0005F4F0895F6F790958095709561957F4F05
:1010B0008F4F9F4F0895AA1BBB1B51E107C0AA1F6A
:1010C000BB1FA617B70710F0A61BB70B881F991FE9
:1010D0005A95A9F780959095BC01CD010895A1E29C
:1010E0001A2EAA1BBB1BFD010DC0AA1FBB1FEE1FA2
:1010F000FF1FA217B307E407F50720F0A21BB30BED
:10110000E40BF50B661F771F881F991F1A9469F768
:1011100060957095809590959B01AC01BD01CF01C4
:101120000895EE0FFF1F0590F491E02D0994F894B7
:02113000FFCFEF
:0C1132000000803FCDCC4C3D0000803E12
:00000001FF
