:100000000C9462000C948A000C948A000C948A0070
:100010000C948A000C948A000C948A000C948A0038
:100020000C948A000C948A000C948A000C94390178
:100030000C948A000C948A000C948A000C948A0018
:100040000C9499020C948A000C948A000C948A00F7
:100050000C948A000C948A000C948A000C948A00F8
:100060000C948A000C948A000000000024002700F1
:100070002A0000000000250028002B0000000000DE
:1000800023002600290004040404040404040202DA
:100090000202020203030303030301020408102007
:1000A0004080010204081020010204081020000012
:1000B0000007000201000003040600000000000029
:1000C00000008D0011241FBECFEFD8E0DEBFCDBFF2
:1000D00011E0A0E0B1E0EEEAF6E002C005900D927A
:1000E000A030B107D9F711E0A0E0B1E001C01D9246
:1000F000A233B107E1F710E0C4ECD0E004C02297CE
:10010000FE010E945103C23CD107C9F70E948A0236
:100110000C9455030C940000089580E091E00E9437
:100120009900089580E091E06AE070E00E94320159
:100130000895FC01809103018C3090F480838F5FDF
:1001400080930301815090E0FC01EE0FFF1FE80F48
:10015000F91FEC5FFE4F88EB9BE09283818308954B
:100160008FEF80830895CF92DF92EF92FF921F93DB
:10017000CF93DF93EC01162F7A01690188818C30CF
:1001800008F064C0862F61E00E94F701888190E04A
:10019000FC01EE0FFF1FE80FF91FEC5FFE4F1F730E
:1001A0008081807C812B808380E292E08E199F0980
:1001B00064E070E00E942803698380E699E08C196E
:1001C0009D0964E070E00E9428036A83A8818A2F59
:1001D0006CE00E941C03682F70E0AB01440F551FB8
:1001E000460F571F440F551F440F551F20E030E0A6
:1001F000C901840F951FFC01EE0FFF1FE80FF91FC7
:10020000EC5FFE4F808186FD15C02F5F3F4F2C3085
:10021000310571F724C01092800082E08093810044
:100220001092850010928400B19A80916F008260D4
:1002300080936F008A2F90E0FC01EE0FFF1FE80F04
:10024000F91FEC5FFE4F8081806480838881DF919D
:10025000CF911F91FF90EF90DF90CF900895672B83
:10026000D1F2E8CF40E252E020E639E00E94B3004C
:1002700008951F920F920FB60F9211242F933F9360
:100280004F935F936F937F938F939F93AF93BF939E
:10029000EF93FF938091280187FF05C0109285009E
:1002A000109284002BC020912801332727FD309520
:1002B0008091030190E02817390704F58091280107
:1002C000992787FD9095FC01EE0FFF1FE80FF91F9E
:1002D000EC5FFE4F808186FF11C080912801992735
:1002E00087FD9095FC01EE0FFF1FE80FF91FEC5FF3
:1002F000FE4F80818F7360E00E943602809128015A
:100300008F5F8093280120912801332727FD3095A6
:100310008091030190E0281739070CF04EC08091BE
:1003200028018C300CF049C0209184003091850068
:1003300080912801992787FD9095FC01EE0FFF1F02
:10034000E80FF91FEC5FFE4F81819281280F391F62
:10035000309389002093880080912801992787FD98
:100360009095FC01EE0FFF1FE80FF91FEC5FFE4FA9
:10037000808186FF2BC080912801992787FD909569
:10038000FC01EE0FFF1FE80FF91FEC5FFE4F8081AD
:100390008F7361E00E94360219C080E49CE905C0B9
:1003A00080918400909185000496909389008093B9
:1003B00088008FEF8093280109C08091840090917C
:1003C0008500049680549C4940F3EACFFF91EF9159
:1003D000BF91AF919F918F917F916F915F914F915D
:1003E0003F912F910F900FBE0F901F901895CF93B4
:1003F000DF93482F50E0CA0186569F4FFC0134918D
:100400004A575F4FFA018491882369F190E0880F81
:10041000991FFC01E859FF4FA591B491FC01EE58DA
:10042000FF4FC591D491662351F42FB7F8948C9166
:10043000932F909589238C93888189230BC06230F8
:1004400061F42FB7F8948C91932F909589238C9316
:100450008881832B88832FBF06C09FB7F8948C9127
:10046000832B8C939FBFDF91CF910895482F50E04D
:10047000CA0182559F4FFC012491CA0186569F4FA5
:10048000FC0194914A575F4FFA013491332309F4E8
:1004900040C0222351F1233071F0243028F4213060
:1004A000A1F0223011F514C02630B1F02730C1F090
:1004B0002430D9F404C0809180008F7703C08091EC
:1004C00080008F7D8093800010C084B58F7702C03C
:1004D00084B58F7D84BD09C08091B0008F7703C043
:1004E0008091B0008F7D8093B000E32FF0E0EE0F9D
:1004F000FF1FEE58FF4FA591B4912FB7F8946623D4
:1005000021F48C919095892302C08C91892B8C9336
:100510002FBF0895CF93DF930E94E1020E949200C3
:10052000C0E0D0E00E948C002097E1F30E94000020
:10053000F9CF1F920F920FB60F9211242F933F9372
:100540008F939F93AF93BF9380912D0190912E0134
:10055000A0912F01B0913001309131010196A11D80
:10056000B11D232F2D5F2D3720F02D570196A11D92
:10057000B11D2093310180932D0190932E01A09302
:100580002F01B09330018091290190912A01A0910F
:100590002B01B0912C010196A11DB11D8093290161
:1005A00090932A01A0932B01B0932C01BF91AF919E
:1005B0009F918F913F912F910F900FBE0F901F90A1
:1005C0001895789484B5826084BD84B5816084BDBB
:1005D00085B5826085BD85B5816085BDEEE6F0E0BC
:1005E000808181608083E1E8F0E010828081826018
:1005F0008083808181608083E0E8F0E08081816099
:100600008083E1EBF0E0808184608083E0EBF0E0C8
:10061000808181608083EAE7F0E08081846080836C
:100620008081826080838081816080838081806816
:1006300080831092C1000895991B79E004C0991F2E
:10064000961708F0961B881F7A95C9F7809508952C
:1006500097FB092E07260AD077FD04D00CD006D0D0
:1006600000201AF4709561957F4F0895F6F79095E4
:1006700081959F4F0895AA1BBB1B51E107C0AA1F7C
:10068000BB1FA617B70710F0A61BB70B881F991F33
:100690005A95A9F780959095BC01CD010895EE0F6C
:0E06A000FF1F0590F491E02D0994F894FFCF10
:00000001FF
